{
  "_format": "hh-sol-artifact-1",
  "contractName": "Splitwise",
  "sourceName": "contracts/mycontract.sol",
  "abi": [
    {
      "inputs": [
        {
          "internalType": "address",
          "name": "debtor",
          "type": "address"
        },
        {
          "internalType": "address",
          "name": "creditor",
          "type": "address"
        },
        {
          "internalType": "uint32",
          "name": "amount",
          "type": "uint32"
        }
      ],
      "name": "addDebt",
      "outputs": [],
      "stateMutability": "nonpayable",
      "type": "function"
    },
    {
      "inputs": [
        {
          "internalType": "address",
          "name": "creditor",
          "type": "address"
        },
        {
          "internalType": "uint32",
          "name": "amount",
          "type": "uint32"
        }
      ],
      "name": "add_IOU",
      "outputs": [],
      "stateMutability": "nonpayable",
      "type": "function"
    },
    {
      "inputs": [
        {
          "internalType": "address",
          "name": "",
          "type": "address"
        },
        {
          "internalType": "address",
          "name": "",
          "type": "address"
        }
      ],
      "name": "debts",
      "outputs": [
        {
          "internalType": "uint32",
          "name": "",
          "type": "uint32"
        }
      ],
      "stateMutability": "view",
      "type": "function"
    },
    {
      "inputs": [],
      "name": "getUsers",
      "outputs": [
        {
          "internalType": "address[]",
          "name": "ret",
          "type": "address[]"
        }
      ],
      "stateMutability": "view",
      "type": "function"
    },
    {
      "inputs": [
        {
          "internalType": "address",
          "name": "debtor",
          "type": "address"
        },
        {
          "internalType": "address",
          "name": "creditor",
          "type": "address"
        }
      ],
      "name": "lookup",
      "outputs": [
        {
          "internalType": "uint32",
          "name": "ret",
          "type": "uint32"
        }
      ],
      "stateMutability": "view",
      "type": "function"
    },
    {
      "inputs": [
        {
          "internalType": "address",
          "name": "debtor",
          "type": "address"
        },
        {
          "internalType": "address",
          "name": "creditor",
          "type": "address"
        },
        {
          "internalType": "uint32",
          "name": "amount",
          "type": "uint32"
        }
      ],
      "name": "subtractDebt",
      "outputs": [],
      "stateMutability": "nonpayable",
      "type": "function"
    },
    {
      "inputs": [
        {
          "internalType": "uint256",
          "name": "",
          "type": "uint256"
        }
      ],
      "name": "users",
      "outputs": [
        {
          "internalType": "address",
          "name": "",
          "type": "address"
        }
      ],
      "stateMutability": "view",
      "type": "function"
    }
  ],
  "bytecode": "0x608060405234801561001057600080fd5b50610d79806100206000396000f3fe608060405234801561001057600080fd5b506004361061007c5760003560e01c8063713584a61161005b578063713584a6146100ff5780637913b0ce1461012f578063a6b066bc1461014b578063d12099e4146101675761007c565b8062ce8e3e14610081578063365b98b21461009f5780634ac1c33d146100cf575b600080fd5b610089610183565b60405161009691906108d6565b60405180910390f35b6100b960048036038101906100b49190610933565b610288565b6040516100c6919061096f565b60405180910390f35b6100e960048036038101906100e491906109b6565b6102c7565b6040516100f69190610a15565b60405180910390f35b610119600480360381019061011491906109b6565b6102f9565b6040516101269190610a15565b60405180910390f35b61014960048036038101906101449190610a5c565b610390565b005b61016560048036038101906101609190610a5c565b610497565b005b610181600480360381019061017c9190610aaf565b61061e565b005b606060008054905067ffffffffffffffff8111156101a4576101a3610aef565b5b6040519080825280602002602001820160405280156101d25781602001602082028036833780820191505090505b50905060005b60008054905081101561028457600081815481106101f9576101f8610b1e565b5b9060005260206000200160009054906101000a900473ffffffffffffffffffffffffffffffffffffffff1682828151811061023757610236610b1e565b5b602002602001019073ffffffffffffffffffffffffffffffffffffffff16908173ffffffffffffffffffffffffffffffffffffffff1681525050808061027c90610b7c565b9150506101d8565b5090565b6000818154811061029857600080fd5b906000526020600020016000915054906101000a900473ffffffffffffffffffffffffffffffffffffffff1681565b60016020528160005260406000206020528060005260406000206000915091509054906101000a900463ffffffff1681565b6000600160008473ffffffffffffffffffffffffffffffffffffffff1673ffffffffffffffffffffffffffffffffffffffff16815260200190815260200160002060008373ffffffffffffffffffffffffffffffffffffffff1673ffffffffffffffffffffffffffffffffffffffff16815260200190815260200160002060009054906101000a900463ffffffff16905092915050565b60008163ffffffff16116103d9576040517f08c379a00000000000000000000000000000000000000000000000000000000081526004016103d090610c21565b60405180910390fd5b80600160008573ffffffffffffffffffffffffffffffffffffffff1673ffffffffffffffffffffffffffffffffffffffff16815260200190815260200160002060008473ffffffffffffffffffffffffffffffffffffffff1673ffffffffffffffffffffffffffffffffffffffff16815260200190815260200160002060008282829054906101000a900463ffffffff166104749190610c41565b92506101000a81548163ffffffff021916908363ffffffff160217905550505050565b60008163ffffffff16116104e0576040517f08c379a00000000000000000000000000000000000000000000000000000000081526004016104d790610c21565b60405180910390fd5b8273ffffffffffffffffffffffffffffffffffffffff168273ffffffffffffffffffffffffffffffffffffffff160361054e576040517f08c379a000000000000000000000000000000000000000000000000000000000815260040161054590610ceb565b60405180910390fd5b80600160008573ffffffffffffffffffffffffffffffffffffffff1673ffffffffffffffffffffffffffffffffffffffff16815260200190815260200160002060008473ffffffffffffffffffffffffffffffffffffffff1673ffffffffffffffffffffffffffffffffffffffff16815260200190815260200160002060008282829054906101000a900463ffffffff166105e99190610d0b565b92506101000a81548163ffffffff021916908363ffffffff160217905550610610836106e4565b610619826106e4565b505050565b60008163ffffffff1611610667576040517f08c379a000000000000000000000000000000000000000000000000000000000815260040161065e90610c21565b60405180910390fd5b3373ffffffffffffffffffffffffffffffffffffffff168273ffffffffffffffffffffffffffffffffffffffff16036106d5576040517f08c379a00000000000000000000000000000000000000000000000000000000081526004016106cc90610ceb565b60405180910390fd5b6106e0338383610497565b5050565b60005b60008054905081101561077e578173ffffffffffffffffffffffffffffffffffffffff166000828154811061071f5761071e610b1e565b5b9060005260206000200160009054906101000a900473ffffffffffffffffffffffffffffffffffffffff1673ffffffffffffffffffffffffffffffffffffffff160361076b57506107e3565b808061077690610b7c565b9150506106e7565b506000819080600181540180825580915050600190039060005260206000200160009091909190916101000a81548173ffffffffffffffffffffffffffffffffffffffff021916908373ffffffffffffffffffffffffffffffffffffffff1602179055505b50565b600081519050919050565b600082825260208201905092915050565b6000819050602082019050919050565b600073ffffffffffffffffffffffffffffffffffffffff82169050919050565b600061083d82610812565b9050919050565b61084d81610832565b82525050565b600061085f8383610844565b60208301905092915050565b6000602082019050919050565b6000610883826107e6565b61088d81856107f1565b935061089883610802565b8060005b838110156108c95781516108b08882610853565b97506108bb8361086b565b92505060018101905061089c565b5085935050505092915050565b600060208201905081810360008301526108f08184610878565b905092915050565b600080fd5b6000819050919050565b610910816108fd565b811461091b57600080fd5b50565b60008135905061092d81610907565b92915050565b600060208284031215610949576109486108f8565b5b60006109578482850161091e565b91505092915050565b61096981610832565b82525050565b60006020820190506109846000830184610960565b92915050565b61099381610832565b811461099e57600080fd5b50565b6000813590506109b08161098a565b92915050565b600080604083850312156109cd576109cc6108f8565b5b60006109db858286016109a1565b92505060206109ec858286016109a1565b9150509250929050565b600063ffffffff82169050919050565b610a0f816109f6565b82525050565b6000602082019050610a2a6000830184610a06565b92915050565b610a39816109f6565b8114610a4457600080fd5b50565b600081359050610a5681610a30565b92915050565b600080600060608486031215610a7557610a746108f8565b5b6000610a83868287016109a1565b9350506020610a94868287016109a1565b9250506040610aa586828701610a47565b9150509250925092565b60008060408385031215610ac657610ac56108f8565b5b6000610ad4858286016109a1565b9250506020610ae585828601610a47565b9150509250929050565b7f4e487b7100000000000000000000000000000000000000000000000000000000600052604160045260246000fd5b7f4e487b7100000000000000000000000000000000000000000000000000000000600052603260045260246000fd5b7f4e487b7100000000000000000000000000000000000000000000000000000000600052601160045260246000fd5b6000610b87826108fd565b91507fffffffffffffffffffffffffffffffffffffffffffffffffffffffffffffffff8203610bb957610bb8610b4d565b5b600182019050919050565b600082825260208201905092915050565b7f416d6f756e74206d7573742062652067726561746572207468616e2030000000600082015250565b6000610c0b601d83610bc4565b9150610c1682610bd5565b602082019050919050565b60006020820190508181036000830152610c3a81610bfe565b9050919050565b6000610c4c826109f6565b9150610c57836109f6565b9250828203905063ffffffff811115610c7357610c72610b4d565b5b92915050565b7f4372656469746f722063616e6e6f74206265207468652073616d65206173206460008201527f6562746f72000000000000000000000000000000000000000000000000000000602082015250565b6000610cd5602583610bc4565b9150610ce082610c79565b604082019050919050565b60006020820190508181036000830152610d0481610cc8565b9050919050565b6000610d16826109f6565b9150610d21836109f6565b9250828201905063ffffffff811115610d3d57610d3c610b4d565b5b9291505056fea2646970667358221220adcfd1c80888d418937e1d7133b155aef04612f5b51c263049edff87f894127364736f6c63430008110033",
  "linkReferences": {},
  "deployedLinkReferences": {}
}