{
  "_format": "hh-sol-artifact-1",
  "contractName": "Splitwise",
  "sourceName": "contracts/mycontract.sol",
  "abi": [
    {
      "inputs": [
        {
          "internalType": "address",
          "name": "debtor",
          "type": "address"
        },
        {
          "internalType": "address",
          "name": "creditor",
          "type": "address"
        },
        {
          "internalType": "uint32",
          "name": "amount",
          "type": "uint32"
        }
      ],
      "name": "addDebt",
      "outputs": [],
      "stateMutability": "nonpayable",
      "type": "function"
    },
    {
      "inputs": [
        {
          "internalType": "address",
          "name": "creditor",
          "type": "address"
        },
        {
          "internalType": "uint32",
          "name": "amount",
          "type": "uint32"
        }
      ],
      "name": "add_IOU",
      "outputs": [],
      "stateMutability": "nonpayable",
      "type": "function"
    },
    {
      "inputs": [
        {
          "internalType": "address",
          "name": "",
          "type": "address"
        },
        {
          "internalType": "address",
          "name": "",
          "type": "address"
        }
      ],
      "name": "debts",
      "outputs": [
        {
          "internalType": "uint32",
          "name": "",
          "type": "uint32"
        }
      ],
      "stateMutability": "view",
      "type": "function"
    },
    {
      "inputs": [],
      "name": "getUsers",
      "outputs": [
        {
          "internalType": "address[]",
          "name": "ret",
          "type": "address[]"
        }
      ],
      "stateMutability": "view",
      "type": "function"
    },
    {
      "inputs": [
        {
          "internalType": "address",
          "name": "debtor",
          "type": "address"
        },
        {
          "internalType": "address",
          "name": "creditor",
          "type": "address"
        }
      ],
      "name": "lookup",
      "outputs": [
        {
          "internalType": "uint32",
          "name": "ret",
          "type": "uint32"
        }
      ],
      "stateMutability": "view",
      "type": "function"
    },
    {
      "inputs": [
        {
          "internalType": "address",
          "name": "debtor",
          "type": "address"
        },
        {
          "internalType": "address",
          "name": "creditor",
          "type": "address"
        },
        {
          "internalType": "uint32",
          "name": "amount",
          "type": "uint32"
        }
      ],
      "name": "subtractDebt",
      "outputs": [],
      "stateMutability": "nonpayable",
      "type": "function"
    },
    {
      "inputs": [
        {
          "internalType": "uint256",
          "name": "",
          "type": "uint256"
        }
      ],
      "name": "users",
      "outputs": [
        {
          "internalType": "address",
          "name": "",
          "type": "address"
        }
      ],
      "stateMutability": "view",
      "type": "function"
    }
  ],
  "bytecode": "0x608060405234801561001057600080fd5b50610df7806100206000396000f3fe608060405234801561001057600080fd5b506004361061007c5760003560e01c8063713584a61161005b578063713584a6146100ff5780637913b0ce1461012f578063a6b066bc1461014b578063d12099e4146101675761007c565b8062ce8e3e14610081578063365b98b21461009f5780634ac1c33d146100cf575b600080fd5b610089610183565b604051610096919061090c565b60405180910390f35b6100b960048036038101906100b49190610969565b610288565b6040516100c691906109a5565b60405180910390f35b6100e960048036038101906100e491906109ec565b6102c7565b6040516100f69190610a4b565b60405180910390f35b610119600480360381019061011491906109ec565b6102f9565b6040516101269190610a4b565b60405180910390f35b61014960048036038101906101449190610a92565b610390565b005b61016560048036038101906101609190610a92565b610497565b005b610181600480360381019061017c9190610ae5565b6105b0565b005b606060008054905067ffffffffffffffff8111156101a4576101a3610b25565b5b6040519080825280602002602001820160405280156101d25781602001602082028036833780820191505090505b50905060005b60008054905081101561028457600081815481106101f9576101f8610b54565b5b9060005260206000200160009054906101000a900473ffffffffffffffffffffffffffffffffffffffff1682828151811061023757610236610b54565b5b602002602001019073ffffffffffffffffffffffffffffffffffffffff16908173ffffffffffffffffffffffffffffffffffffffff1681525050808061027c90610bb2565b9150506101d8565b5090565b6000818154811061029857600080fd5b906000526020600020016000915054906101000a900473ffffffffffffffffffffffffffffffffffffffff1681565b60016020528160005260406000206020528060005260406000206000915091509054906101000a900463ffffffff1681565b6000600160008473ffffffffffffffffffffffffffffffffffffffff1673ffffffffffffffffffffffffffffffffffffffff16815260200190815260200160002060008373ffffffffffffffffffffffffffffffffffffffff1673ffffffffffffffffffffffffffffffffffffffff16815260200190815260200160002060009054906101000a900463ffffffff16905092915050565b60008163ffffffff16116103d9576040517f08c379a00000000000000000000000000000000000000000000000000000000081526004016103d090610c57565b60405180910390fd5b80600160008573ffffffffffffffffffffffffffffffffffffffff1673ffffffffffffffffffffffffffffffffffffffff16815260200190815260200160002060008473ffffffffffffffffffffffffffffffffffffffff1673ffffffffffffffffffffffffffffffffffffffff16815260200190815260200160002060008282829054906101000a900463ffffffff166104749190610c77565b92506101000a81548163ffffffff021916908363ffffffff160217905550505050565b60008163ffffffff16116104e0576040517f08c379a00000000000000000000000000000000000000000000000000000000081526004016104d790610c57565b60405180910390fd5b80600160008573ffffffffffffffffffffffffffffffffffffffff1673ffffffffffffffffffffffffffffffffffffffff16815260200190815260200160002060008473ffffffffffffffffffffffffffffffffffffffff1673ffffffffffffffffffffffffffffffffffffffff16815260200190815260200160002060008282829054906101000a900463ffffffff1661057b9190610caf565b92506101000a81548163ffffffff021916908363ffffffff1602179055506105a28361064f565b6105ab8261064f565b505050565b60008163ffffffff16116105f9576040517f08c379a00000000000000000000000000000000000000000000000000000000081526004016105f090610c57565b60405180910390fd5b6106406040518060400160405280601f81526020017f416464696e672064656274206f662025732066726f6d20257320746f202573008152508263ffffffff163385610751565b61064b338383610497565b5050565b60005b6000805490508110156106e9578173ffffffffffffffffffffffffffffffffffffffff166000828154811061068a57610689610b54565b5b9060005260206000200160009054906101000a900473ffffffffffffffffffffffffffffffffffffffff1673ffffffffffffffffffffffffffffffffffffffff16036106d6575061074e565b80806106e190610bb2565b915050610652565b506000819080600181540180825580915050600190039060005260206000200160009091909190916101000a81548173ffffffffffffffffffffffffffffffffffffffff021916908373ffffffffffffffffffffffffffffffffffffffff1602179055505b50565b6107ed8484848460405160240161076b9493929190610d75565b6040516020818303038152906040527f5ea2b7ae000000000000000000000000000000000000000000000000000000007bffffffffffffffffffffffffffffffffffffffffffffffffffffffff19166020820180517bffffffffffffffffffffffffffffffffffffffffffffffffffffffff83818316178352505050506107f3565b50505050565b60008151905060006a636f6e736f6c652e6c6f679050602083016000808483855afa5050505050565b600081519050919050565b600082825260208201905092915050565b6000819050602082019050919050565b600073ffffffffffffffffffffffffffffffffffffffff82169050919050565b600061087382610848565b9050919050565b61088381610868565b82525050565b6000610895838361087a565b60208301905092915050565b6000602082019050919050565b60006108b98261081c565b6108c38185610827565b93506108ce83610838565b8060005b838110156108ff5781516108e68882610889565b97506108f1836108a1565b9250506001810190506108d2565b5085935050505092915050565b6000602082019050818103600083015261092681846108ae565b905092915050565b600080fd5b6000819050919050565b61094681610933565b811461095157600080fd5b50565b6000813590506109638161093d565b92915050565b60006020828403121561097f5761097e61092e565b5b600061098d84828501610954565b91505092915050565b61099f81610868565b82525050565b60006020820190506109ba6000830184610996565b92915050565b6109c981610868565b81146109d457600080fd5b50565b6000813590506109e6816109c0565b92915050565b60008060408385031215610a0357610a0261092e565b5b6000610a11858286016109d7565b9250506020610a22858286016109d7565b9150509250929050565b600063ffffffff82169050919050565b610a4581610a2c565b82525050565b6000602082019050610a606000830184610a3c565b92915050565b610a6f81610a2c565b8114610a7a57600080fd5b50565b600081359050610a8c81610a66565b92915050565b600080600060608486031215610aab57610aaa61092e565b5b6000610ab9868287016109d7565b9350506020610aca868287016109d7565b9250506040610adb86828701610a7d565b9150509250925092565b60008060408385031215610afc57610afb61092e565b5b6000610b0a858286016109d7565b9250506020610b1b85828601610a7d565b9150509250929050565b7f4e487b7100000000000000000000000000000000000000000000000000000000600052604160045260246000fd5b7f4e487b7100000000000000000000000000000000000000000000000000000000600052603260045260246000fd5b7f4e487b7100000000000000000000000000000000000000000000000000000000600052601160045260246000fd5b6000610bbd82610933565b91507fffffffffffffffffffffffffffffffffffffffffffffffffffffffffffffffff8203610bef57610bee610b83565b5b600182019050919050565b600082825260208201905092915050565b7f416d6f756e74206d7573742062652067726561746572207468616e2030000000600082015250565b6000610c41601d83610bfa565b9150610c4c82610c0b565b602082019050919050565b60006020820190508181036000830152610c7081610c34565b9050919050565b6000610c8282610a2c565b9150610c8d83610a2c565b9250828203905063ffffffff811115610ca957610ca8610b83565b5b92915050565b6000610cba82610a2c565b9150610cc583610a2c565b9250828201905063ffffffff811115610ce157610ce0610b83565b5b92915050565b600081519050919050565b60005b83811015610d10578082015181840152602081019050610cf5565b60008484015250505050565b6000601f19601f8301169050919050565b6000610d3882610ce7565b610d428185610bfa565b9350610d52818560208601610cf2565b610d5b81610d1c565b840191505092915050565b610d6f81610933565b82525050565b60006080820190508181036000830152610d8f8187610d2d565b9050610d9e6020830186610d66565b610dab6040830185610996565b610db86060830184610996565b9594505050505056fea2646970667358221220cdace44b3c25480234f3ee616a8118e62b4492cfcd57a39b373e6e7ad54a120b64736f6c63430008110033",
  "linkReferences": {},
  "deployedLinkReferences": {}
}